S0180000547570706572776172655F42617369632E737265639C
S11300000C9458000C9475000C9475000C947500B5
S11300100C9475000C9475000C9475000C94750088
S11300200C9475000C9475000C9475000C94750078
S11300300C9475000C9475000C9475000C94750068
S11300400C9475000C9486010C9475000C94750046
S11300500C9475000C9475000C9475000C94750048
S11300600C9475000C9475000C9475000C94750038
S11300700C9475000C9475000C9475000C94750028
S11300800C9475000C9475000C9475000C94750018
S11300900C9475000C9475000C9475000C94750008
S11300A00C9475000C9475000C94750057015B0159
S11300B011241FBECFEFDAE0DEBFCDBF21E0A0E008
S11300C0B1E001C01D92A630B207E1F710E0C7E528
S11300D0D0E004C02197FE010E94BF01C635D107BC
S11300E0C9F70E94EF000C94C5010C9400002FE0A6
S11300F030E0FC0131832083089508953F9A4798A6
S11301000895462FFC0180819181009711F447984E
S1130110089523E0880F991F2A95E1F765E070E0C0
S11301200E94AB0121E230E0261B370B442329F067
S11301304798FAE1FA95F1F700C080E090E0821761
S1130140930744F4479A4AE14A95F1F700C0479867
S11301500196F5CF8AE18A95F1F700C0479AE7E066
S1130160F2E03197F1F700C00000089547988AE162
S11301708A95F1F700C0089561E00C94810085B779
S1130180806885BF85B7806885BFE1E6F0E080E8D8
S11301908083108284B1806784B985B1806785B912
S11301A08D9A859880E091E00E947E008FE090E037
S11301B090930101809300010E945F017894089557
S11301C085B1806785B92D98089585B1806785B913
S11301D02E98089585B1806785B92C9808950E945A
S11301E0BF000E94E000C0E0D0E010E0812C912C20
S11301F054010E946E016B017C017D9B0AC0D111E8
S113020016C080E091E00E94B6000E94EA00D1E0AE
S11302100EC0DD2361F0CC2339F080E091E00E9430
S1130220BC000E94E50002C00E94E000D0E080E330
S1130230C81685E7D806E104F10480F00E947A012B
S11302400E946E016B017C0180E1C81687E2D8062A
S1130250E104F10470F4C0E010E0CBCF80E1C816F3
S113026087E2D806E104F10420F21111C2CFC111D2
S113027008C080E091E00E94BC000E94E5004601B5
S11302805701C818D908EA08FB0888E8C81683E1AA
S1130290D806E104F10410F4C1E0DECF80E091E07F
S11302A00E94B6000E94E000C0E011E0A2CF80E00E
S11302B091E00C94770080E091E00C947D00109222
S11302C0800089E08093810082E080936F0080E861
S11302D09EE3909389008093880008952FB7F89443
S11302E060910201709103018091040190910501D4
S11302F02FBF08958FB7F894109202011092030152
S113030010920401109205018FBF08951F920F925D
S11303100FB60F9211248F939F93AF93BF93809145
S1130320020190910301A0910401B091050101968D
S1130330A11DB11D8093020190930301A0930401B8
S1130340B0930501BF91AF919F918F910F900FBE14
S11303500F901F901895AA1BBB1B51E107C0AA1F41
S1130360BB1FA617B70710F0A61BB70B881F991F52
S11303705A95A9F780959095BC01CD010895EE0F8B
S1130380FF1F0590F491E02D099410E0C7E5D0E03B
S113039004C0FE010E94BF012196C835D107C9F7E8
S10703A0F894FFCFFB
S9030000FC
