S0180000547570706572776172655F42617369632E737265639C
S11300000C9456000C9468000C9468000C946800DE
S11300100C9468000C9468000C9468000C946800BC
S11300200C9468000C9468000C9468000C946800AC
S11300300C9468000C9468000C9468000C9468009C
S11300400C9468000C949B020C9468000C94680057
S11300500C9468000C9468000C9468000C9468007C
S11300600C9468000C9468000C9468000C9468006C
S11300700C9468000C9468000C9468000C9468005C
S11300800C9468000C9468000C9468000C9468004C
S11300900C9468000C9468000C9468000C9468003C
S11300A00C9468000C9468000C94680011241FBE22
S11300B0CFEFDAE0DEBFCDBF21E0A0E0B1E001C0C8
S11300C01D92A430B207E1F70E94B2000C94D4024E
S11300D00C9400002FE030E0FC013183208308956C
S11300E008953F9A47980895462FFC018081918195
S11300F0009711F44798089523E0880F991F2A95D3
S1130100E1F765E070E00E94C00221E230E0261BC6
S1130110370B442329F04798FAE1FA95F1F700C028
S113012080E090E08217930744F4479A4AE14A95A5
S1130130F1F700C047980196F5CF8AE18A95F1F767
S113014000C0479AE7E0F2E03197F1F700C0000001
S1130150089547988AE18A95F1F700C0089561E00F
S11301600C947400CF93DF93CDB7DEB765970FB6C9
S1130170F894DEBF0FBECDBFCE0101960E94EB0006
S1130180CE0101960E942801CE0101960E944802E8
S1130190CE0101960E94700281E090E065960FB650
S11301A0F894DEBF0FBECDBFDF91CF910895CF93FA
S11301B0DF93EC010E948F026D877E878F87988B77
S11301C069877A878B879C8769837A838B839C83EF
S11301D0DF91CF910895CF93DF93EC010E946A00E1
S11301E0CE0102960E947B021D821E821F82188607
S11301F019861A861B861C861D861E861F86188AEB
S1130200198A1A8A1B8A1C8A1C82DF91CF9108954D
S1130210CF93DF93EC0185B7806885BF85B780688D
S113022085BFE1E6F0E080E88083108284B18067D6
S113023084B985B1806785B98D9A8598CE010E946D
S113024071008FE090E099838883DF91CF910895C6
S1130250CF93DF93EC010E9408010E9480027894FE
S11302601D821E821F82188619861A861B861C868A
S11302700E948F02698B7A8B8B8B9C8B6D877E8718
S11302808F87988B1C821B821A82DF91CF910895ED
S113029085B1806785B92D980895CF93DF93EC01DC
S11302A081E08B838A81811103C0CE010E944801C1
S11302B0CE010496DF91CF910C94D70085B180676D
S11302C085B92E980895CF93DF93EC018A8181112B
S11302D006C0CE010E94AF00CE010E945E0183E001
S11302E08B830E948F02698B7A8B8B8B9C8B6987A3
S11302F07A878B879C87DF91CF910895CF93DF9383
S1130300662319F0613029F00FC0DF91CF910C946E
S11303106301EC010E94A9008A81811103C0CE010E
S11303200E94480182E08B83DF91CF91089585B1CB
S1130330806785B92C9808950F931F93CF93DF930B
S1130340EC018A817D9B08C0811103C0CE010E940B
S1130350970181E08A8306C0882319F0CE010E94A8
S113036048011A820E948F02698B7A8B8B8B9C8B3B
S11303700D851E852F853889DC01CB01801B910BEF
S1130380A20BB30B8038934BA341B44038F0CE0199
S1130390DF91CF911F910F910C944D01DF91CF917B
S11303A01F910F9108950F931F93CF93DF93EC0147
S11303B08A817D9B0BC0811106C0CE010E94AF00D3
S11303C0CE010E94970181E08A8309C0882331F01D
S11303D0CE010E94AF00CE010E945E011A820E94EB
S11303E08F02698B7A8B8B8B9C8B09851A852B8565
S11303F03C85DC01CB01801B910BA20BB30B803835
S11304009B4CA44AB10540F061E0CE01DF91CF914D
S11304101F910F910C947E01DF91CF911F910F9149
S113042008950F931F93CF93DF93EC018A817D9BF3
S113043008C0811103C0CE010E94970181E08A8324
S113044006C0882319F0CE010E9448011A820E9436
S11304508F02698B7A8B8B8B9C8B0D811E812F81F4
S11304603885DC01CB01801B910BA20BB30B803CC4
S11304709742A940B10538F0CE01DF91CF911F9189
S11304800F910C946301DF91CF911F910F91089507
S1130490EC018C010C5F1F4F8B81813099F040F08F
S11304A08230A1F08330A9F4CE010E94D30111C09F
S11304B0CE010E944801C8010E94D700CE010E94CB
S11304C04D0107C0CE010E94110203C0CE010E945B
S11304D09C018FE19EE40197F1F700C00000DCCF9E
S11304E0CF93DF93EC0102960E947F02CE01DF914D
S11304F0CF910C947000FC0110821182089508952C
S11305001092800089E08093810082E080936F00E4
S113051080E89EE3909389008093880008952FB724
S1130520F894609100017091010180910201909111
S113053003012FBF08951F920F920FB60F9211243B
S11305408F939F93AF93BF9380910001909101018A
S1130550A0910201B09103010196A11DB11D8093E8
S1130560000190930101A0930201B0930301BF9194
S1130570AF919F918F910F900FBE0F901F90189580
S1130580AA1BBB1B51E107C0AA1FBB1FA617B707B5
S113059010F0A61BB70B881F991F5A95A9F78095D1
S10F05A09095BC01CD010895F894FFCFA4
S9030000FC
